{
  "contractName": "Ownership",
  "abi": [
    {
      "constant": false,
      "inputs": [
        {
          "name": "fileHash",
          "type": "string"
        }
      ],
      "name": "rentTransaction",
      "outputs": [],
      "payable": false,
      "stateMutability": "nonpayable",
      "type": "function"
    },
    {
      "constant": true,
      "inputs": [
        {
          "name": "",
          "type": "uint256"
        }
      ],
      "name": "bookNames",
      "outputs": [
        {
          "name": "",
          "type": "string"
        }
      ],
      "payable": false,
      "stateMutability": "view",
      "type": "function"
    },
    {
      "constant": true,
      "inputs": [],
      "name": "getAllBooks",
      "outputs": [
        {
          "name": "",
          "type": "string[][]"
        }
      ],
      "payable": false,
      "stateMutability": "view",
      "type": "function"
    },
    {
      "constant": false,
      "inputs": [
        {
          "name": "tokens",
          "type": "uint256"
        }
      ],
      "name": "buyTokens",
      "outputs": [],
      "payable": false,
      "stateMutability": "nonpayable",
      "type": "function"
    },
    {
      "constant": true,
      "inputs": [
        {
          "name": "",
          "type": "uint256"
        },
        {
          "name": "",
          "type": "uint256"
        }
      ],
      "name": "bookDetails",
      "outputs": [
        {
          "name": "",
          "type": "string"
        }
      ],
      "payable": false,
      "stateMutability": "view",
      "type": "function"
    },
    {
      "constant": true,
      "inputs": [
        {
          "name": "",
          "type": "uint256"
        }
      ],
      "name": "authors",
      "outputs": [
        {
          "name": "",
          "type": "string"
        }
      ],
      "payable": false,
      "stateMutability": "view",
      "type": "function"
    },
    {
      "constant": true,
      "inputs": [
        {
          "name": "fileHash",
          "type": "string"
        }
      ],
      "name": "search",
      "outputs": [
        {
          "name": "contentName",
          "type": "string"
        }
      ],
      "payable": false,
      "stateMutability": "view",
      "type": "function"
    },
    {
      "constant": false,
      "inputs": [
        {
          "name": "fileHash",
          "type": "string"
        },
        {
          "name": "custName",
          "type": "string"
        }
      ],
      "name": "purchase",
      "outputs": [],
      "payable": false,
      "stateMutability": "nonpayable",
      "type": "function"
    },
    {
      "constant": false,
      "inputs": [
        {
          "name": "ipfsHash",
          "type": "string"
        },
        {
          "name": "contentName",
          "type": "string"
        },
        {
          "name": "ownerName",
          "type": "string"
        },
        {
          "name": "price",
          "type": "uint256"
        },
        {
          "name": "rentPrice",
          "type": "uint256"
        },
        {
          "name": "rentDays",
          "type": "uint256"
        }
      ],
      "name": "uploadContent",
      "outputs": [],
      "payable": false,
      "stateMutability": "nonpayable",
      "type": "function"
    },
    {
      "constant": true,
      "inputs": [
        {
          "name": "",
          "type": "uint256"
        }
      ],
      "name": "hashValues",
      "outputs": [
        {
          "name": "",
          "type": "string"
        }
      ],
      "payable": false,
      "stateMutability": "view",
      "type": "function"
    },
    {
      "constant": true,
      "inputs": [
        {
          "name": "",
          "type": "uint256"
        }
      ],
      "name": "prices",
      "outputs": [
        {
          "name": "",
          "type": "string"
        }
      ],
      "payable": false,
      "stateMutability": "view",
      "type": "function"
    },
    {
      "constant": true,
      "inputs": [
        {
          "name": "bookName",
          "type": "string"
        }
      ],
      "name": "getBooks",
      "outputs": [
        {
          "name": "",
          "type": "string"
        }
      ],
      "payable": false,
      "stateMutability": "view",
      "type": "function"
    },
    {
      "constant": true,
      "inputs": [
        {
          "name": "a",
          "type": "string"
        },
        {
          "name": "b",
          "type": "string"
        }
      ],
      "name": "compareStrings",
      "outputs": [
        {
          "name": "",
          "type": "bool"
        }
      ],
      "payable": false,
      "stateMutability": "view",
      "type": "function"
    },
    {
      "constant": true,
      "inputs": [
        {
          "name": "custAddress",
          "type": "address"
        }
      ],
      "name": "getCustomer",
      "outputs": [
        {
          "name": "customerBalance",
          "type": "uint256"
        },
        {
          "name": "boughtBooks",
          "type": "string[][]"
        },
        {
          "name": "rentBooks",
          "type": "string[][]"
        }
      ],
      "payable": false,
      "stateMutability": "view",
      "type": "function"
    },
    {
      "constant": true,
      "inputs": [
        {
          "name": "customer",
          "type": "address"
        },
        {
          "name": "fileHash",
          "type": "string"
        }
      ],
      "name": "getRentUpdate",
      "outputs": [
        {
          "name": "",
          "type": "bool"
        }
      ],
      "payable": false,
      "stateMutability": "view",
      "type": "function"
    },
    {
      "constant": true,
      "inputs": [
        {
          "name": "_i",
          "type": "uint256"
        }
      ],
      "name": "uint2str",
      "outputs": [
        {
          "name": "_uintAsString",
          "type": "string"
        }
      ],
      "payable": false,
      "stateMutability": "view",
      "type": "function"
    },
    {
      "anonymous": false,
      "inputs": [
        {
          "indexed": false,
          "name": "status",
          "type": "bool"
        },
        {
          "indexed": false,
          "name": "timestamp",
          "type": "uint256"
        },
        {
          "indexed": false,
          "name": "owner",
          "type": "address"
        },
        {
          "indexed": false,
          "name": "ipfsHash",
          "type": "string"
        }
      ],
      "name": "FileLogStatus",
      "type": "event"
    },
    {
      "anonymous": false,
      "inputs": [
        {
          "indexed": false,
          "name": "customerBalance",
          "type": "uint256"
        },
        {
          "indexed": false,
          "name": "ownerBalance",
          "type": "uint256"
        }
      ],
      "name": "BookPurchase",
      "type": "event"
    },
    {
      "anonymous": false,
      "inputs": [
        {
          "indexed": false,
          "name": "customerBalance",
          "type": "uint256"
        },
        {
          "indexed": false,
          "name": "tokenBuyer",
          "type": "address"
        }
      ],
      "name": "TokenPurchase",
      "type": "event"
    }
  ],
  "bytecode": "0x608060405234801561001057600080fd5b5061087d806100206000396000f3fe608060405234801561001057600080fd5b50600436106100365760003560e01c8063693ec85e1461003b578063e942b51614610176575b600080fd5b6100f46004803603602081101561005157600080fd5b810190808035906020019064010000000081111561006e57600080fd5b82018360208201111561008057600080fd5b803590602001918460018302840111640100000000831117156100a257600080fd5b91908080601f016020809104026020016040519081016040528093929190818152602001838380828437600081840152601f19601f8201169050808301925050505050505091929192905050506102c8565b6040518083815260200180602001828103825283818151815260200191508051906020019080838360005b8381101561013a57808201518184015260208101905061011f565b50505050905090810190601f1680156101675780820380516001836020036101000a031916815260200191505b50935050505060405180910390f35b6102c66004803603604081101561018c57600080fd5b81019080803590602001906401000000008111156101a957600080fd5b8201836020820111156101bb57600080fd5b803590602001918460018302840111640100000000831117156101dd57600080fd5b91908080601f016020809104026020016040519081016040528093929190818152602001838380828437600081840152601f19601f8201169050808301925050505050505091929192908035906020019064010000000081111561024057600080fd5b82018360208201111561025257600080fd5b8035906020019184600183028401116401000000008311171561027457600080fd5b91908080601f016020809104026020016040519081016040528093929190818152602001838380828437600081840152601f19601f82011690508083019250505050505050919291929050505061044a565b005b600060606000836040518082805190602001908083835b6020831061030257805182526020820191506020810190506020830392506102df565b6001836020036101000a0380198251168184511680821785525050505050509050019150509081526020016040518091039020600001546000846040518082805190602001908083835b6020831061036f578051825260208201915060208101905060208303925061034c565b6001836020036101000a0380198251168184511680821785525050505050509050019150509081526020016040518091039020600101808054600181600116156101000203166002900480601f01602080910402602001604051908101604052809291908181526020018280546001816001161561010002031660029004801561043a5780601f1061040f5761010080835404028352916020019161043a565b820191906000526020600020905b81548152906001019060200180831161041d57829003601f168201915b5050505050905091509150915091565b600080826040518082805190602001908083835b60208310610481578051825260208201915060208101905060208303925061045e565b6001836020036101000a0380198251168184511680821785525050505050509050019150509081526020016040518091039020600001541415610689576040518060400160405280428152602001838152506000826040518082805190602001908083835b6020831061050957805182526020820191506020810190506020830392506104e6565b6001836020036101000a03801982511681845116808217855250505050505090500191505090815260200160405180910390206000820151816000015560208201518160010190805190602001906105629291906107ac565b509050507f5f929030b722583841c4af29fab917311901b0d1fec71dd84f3988dce1fa6623600142848460405180851515151581526020018481526020018060200180602001838103835285818151815260200191508051906020019080838360005b838110156105e05780820151818401526020810190506105c5565b50505050905090810190601f16801561060d5780820380516001836020036101000a031916815260200191505b50838103825284818151815260200191508051906020019080838360005b8381101561064657808201518184015260208101905061062b565b50505050905090810190601f1680156106735780820380516001836020036101000a031916815260200191505b50965050505050505060405180910390a16107a8565b7f5f929030b722583841c4af29fab917311901b0d1fec71dd84f3988dce1fa6623600142848460405180851515151581526020018481526020018060200180602001838103835285818151815260200191508051906020019080838360005b838110156107035780820151818401526020810190506106e8565b50505050905090810190601f1680156107305780820380516001836020036101000a031916815260200191505b50838103825284818151815260200191508051906020019080838360005b8381101561076957808201518184015260208101905061074e565b50505050905090810190601f1680156107965780820380516001836020036101000a031916815260200191505b50965050505050505060405180910390a15b5050565b828054600181600116156101000203166002900490600052602060002090601f016020900481019282601f106107ed57805160ff191683800117855561081b565b8280016001018555821561081b579182015b8281111561081a5782518255916020019190600101906107ff565b5b509050610828919061082c565b5090565b61084e91905b8082111561084a576000816000905550600101610832565b5090565b9056fea165627a7a7230582004b8e0f26010ba420a5b74e17b2be4d304d9a3c1b98d8be5337d2f9be1c9136c0029",
  "source": "pragma solidity 0.5.8;\r\n\r\ncontract Ownership {\r\n    struct FileMap \r\n        {\r\n            uint timestamp;\r\n            string owner;\r\n        }\r\n\r\n    mapping (string => FileMap) allFiles;\r\n\r\n    event FileLogStatus(bool status, uint timestamp, string owner, string ipfsHash);\r\n\r\n    function set(string memory owner, string memory ipfsHash) public\r\n    {\r\n        if(allFiles[ipfsHash].timestamp == 0)\r\n        {\r\n            allFiles[ipfsHash] = FileMap(block.timestamp, owner);\r\n            emit FileLogStatus(true, block.timestamp, owner, ipfsHash);\r\n        }\r\n\r\n        else\r\n        {\r\n            emit FileLogStatus(true, block.timestamp, owner, ipfsHash);\r\n        }\r\n    }\r\n\r\n    function get(string memory ipfsHash) public returns (uint timestamp, string memory owner)\r\n    {\r\n        return (allFiles[ipfsHash].timestamp, allFiles[ipfsHash].owner);\r\n    }\r\n}",
  "sourcePath": "D:/Projects/Decentralized-File-System/contracts/Ownership.sol",
  "compiler": {
    "name": "solc",
    "version": "0.5.8+commit.23d335f2.Emscripten.clang"
  },
  "schemaVersion": "3.0.11",
  "updatedAt": "2019-06-19T17:15:32.510Z",
  "devdoc": {
    "methods": {}
  },
  "userdoc": {
    "methods": {}
  }
}