{
  "contractName": "Ownership",
  "abi": [
    {
      "anonymous": false,
      "inputs": [
        {
          "indexed": false,
          "name": "status",
          "type": "bool"
        },
        {
          "indexed": false,
          "name": "timestamp",
          "type": "uint256"
        },
        {
          "indexed": false,
          "name": "owner",
          "type": "string"
        },
        {
          "indexed": false,
          "name": "ipfsHash",
          "type": "string"
        }
      ],
      "name": "FileLogStatus",
      "type": "event"
    },
    {
      "constant": false,
      "inputs": [
        {
          "name": "owner",
          "type": "string"
        },
        {
          "name": "ipfsHash",
          "type": "string"
        }
      ],
      "name": "set",
      "outputs": [],
      "payable": false,
      "stateMutability": "nonpayable",
      "type": "function"
    }
  ],
  "bytecode": "0x608060405234801561001057600080fd5b506105b5806100206000396000f3fe608060405234801561001057600080fd5b506004361061002b5760003560e01c8063e942b51614610030575b600080fd5b6101806004803603604081101561004657600080fd5b810190808035906020019064010000000081111561006357600080fd5b82018360208201111561007557600080fd5b8035906020019184600183028401116401000000008311171561009757600080fd5b91908080601f016020809104026020016040519081016040528093929190818152602001838380828437600081840152601f19601f820116905080830192505050505050509192919290803590602001906401000000008111156100fa57600080fd5b82018360208201111561010c57600080fd5b8035906020019184600183028401116401000000008311171561012e57600080fd5b91908080601f016020809104026020016040519081016040528093929190818152602001838380828437600081840152601f19601f820116905080830192505050505050509192919290505050610182565b005b600080826040518082805190602001908083835b602083106101b95780518252602082019150602081019050602083039250610196565b6001836020036101000a03801982511681845116808217855250505050505090500191505090815260200160405180910390206000015414156103c1576040518060400160405280428152602001838152506000826040518082805190602001908083835b60208310610241578051825260208201915060208101905060208303925061021e565b6001836020036101000a038019825116818451168082178552505050505050905001915050908152602001604051809103902060008201518160000155602082015181600101908051906020019061029a9291906104e4565b509050507f5f929030b722583841c4af29fab917311901b0d1fec71dd84f3988dce1fa6623600142848460405180851515151581526020018481526020018060200180602001838103835285818151815260200191508051906020019080838360005b838110156103185780820151818401526020810190506102fd565b50505050905090810190601f1680156103455780820380516001836020036101000a031916815260200191505b50838103825284818151815260200191508051906020019080838360005b8381101561037e578082015181840152602081019050610363565b50505050905090810190601f1680156103ab5780820380516001836020036101000a031916815260200191505b50965050505050505060405180910390a16104e0565b7f5f929030b722583841c4af29fab917311901b0d1fec71dd84f3988dce1fa6623600142848460405180851515151581526020018481526020018060200180602001838103835285818151815260200191508051906020019080838360005b8381101561043b578082015181840152602081019050610420565b50505050905090810190601f1680156104685780820380516001836020036101000a031916815260200191505b50838103825284818151815260200191508051906020019080838360005b838110156104a1578082015181840152602081019050610486565b50505050905090810190601f1680156104ce5780820380516001836020036101000a031916815260200191505b50965050505050505060405180910390a15b5050565b828054600181600116156101000203166002900490600052602060002090601f016020900481019282601f1061052557805160ff1916838001178555610553565b82800160010185558215610553579182015b82811115610552578251825591602001919060010190610537565b5b5090506105609190610564565b5090565b61058691905b8082111561058257600081600090555060010161056a565b5090565b9056fea165627a7a723058203a3ba544ab900894748cc086cc68c8768bfdb9160442bf7abff76a95debfc9a90029",
  "source": "pragma solidity 0.5.8;\r\n\r\ncontract Ownership {\r\n    struct FileMap \r\n        {\r\n            uint timestamp;\r\n            string owner;\r\n        }\r\n\r\n    mapping (string => FileMap) allFiles;\r\n\r\n    event FileLogStatus(bool status, uint timestamp, string owner, string ipfsHash);\r\n\r\n    function set(string memory owner, string memory ipfsHash) public\r\n    {\r\n        if(allFiles[ipfsHash].timestamp == 0)\r\n        {\r\n            allFiles[ipfsHash] = FileMap(block.timestamp, owner);\r\n            emit FileLogStatus(true, block.timestamp, owner, ipfsHash);\r\n        }\r\n\r\n        else\r\n        {\r\n            emit FileLogStatus(true, block.timestamp, owner, ipfsHash);\r\n        }\r\n    }\r\n\r\n    function get(string memory ipfsHash) internal view returns (uint timestamp, string memory owner)\r\n    {\r\n        return (allFiles[ipfsHash].timestamp, allFiles[ipfsHash].owner);\r\n    }\r\n}",
  "sourcePath": "D:/Projects/Decentralized File System/contracts/Ownership.sol",
  "compiler": {
    "name": "solc",
    "version": "0.5.8+commit.23d335f2.Emscripten.clang"
  },
  "schemaVersion": "3.0.11",
  "updatedAt": "2019-06-16T06:53:33.891Z",
  "devdoc": {
    "methods": {}
  },
  "userdoc": {
    "methods": {}
  }
}